:020000000A28CC
:10000800FE00030EF0000A08F10053280B28FA013D
:10001800F701F801F90183018828780803191528E0
:10002800162823280130F702031D1B281C283C280A
:100038007A108312851C21287A14F8013C287A1832
:1000480026282828013029280030F2008312851834
:100058002E2830280130312800307206031935283F
:1000680036283C286430F2007208F700F801F80AD4
:100078000800831285010730990083169F018514B3
:100088000510811395141930F5007508F2004830F1
:10009800F6007608F30001307720822008008316E6
:1000A8008C1C57285828602883128C1C5C285D28D3
:1000B80060288C10F901F90A71088A00700E830013
:1000C800FE0E7E0E0900790803196B286C28762825
:1000D80011207A1870287328831205147528831242
:1000E8000510F9010800F4007408730483129200E3
:1000F8007208831692008312121508008312910168
:100108008C1083168C1408003D208D2067208A28C7
:080118000A280B178B170800E1
:02400E00D430AC
:00000001FF
