:020000000A28CC
:10000800FE00030EF0000A08F100E5280B28F52091
:10001800F800F7018301EC28383032200330F5006E
:100028009730F400F40B1628F50B16281B280E3011
:1000380032200330F5009730F400F40B2128F50B3B
:1000480021282628063032200330F5009730F400A6
:10005800F40B2C28F50B2C2831280800F300F0307D
:10006800FF007F0883120313850573080F39FF000B
:100078007F0885040F30FF007F0886057308F03974
:10008800FF007F088604061406102130F200F20BE8
:100098004B28080000308A000408840A82070034CC
:1000A8006D3479342034663469347234733474347A
:1000B800203467346F3461346C34203469347334D9
:1000C80020346D3465347434003483160313861475
:1000D800061518151530990018128312031398176E
:1000E80083160313181383120313181383160313A9
:1000F8000C128C1298168312031318160800F500B8
:10010800F6018F287608750784004E20D420013028
:10011800FF007F08F6077608750784004E20003A2E
:10012800031D9728982886280800831203130C1E9D
:100138009E289F28A128770899008C1EA428A52806
:10014800AA281A08013EFF007F08F70008000230BD
:10015800F4000430F300BA30F200F20BB128F30BCC
:10016800B128F40BB12800000800F030FF007F0828
:100178008316031385050F30FF007F0886050610D8
:1001880005138513080083120313850186010730C0
:100198009F00FF30831603138500FF308600080098
:1001A800F400831203138517740832208312031393
:1001B80085130800F2201020692001308320F70100
:1001C800080071088A00700E8300FE0E7E0E09007A
:1001D800C720DE208B179920EF280A28B920AB20EA
:0401E80008000134D6
:00000001FF
