:10000000FD2F00308A000408840A820700341C3463
:0600100000341834013435
:100E8E0051279527482F00288316051081138516A4
:100E9E0095160800FF3083168500831285010730F2
:100EAE00990083169F0178274B2708007108F300DD
:100EBE007008F2000310F30CF20C0310F30CF20C9A
:100ECE007208831293007008F20003300310F20DC3
:100EDE00FF3E031D6D2F0310720DFF007F0895045A
:100EEE00080083160515453092000F3083129500C9
:100EFE001830F7000130F800F9017808F100770892
:100F0E00F0005D2783128C109210121012158C1C9B
:100F1E00912F922F8E2F8316051108008312851A9A
:100F2E00992F9A2FA32F8230F500DD30F400F40BA9
:100F3E009E2FF50B9E2FA32F8312851AA72FA82F56
:100F4E00FC2F01307802183003197702031CB02FE2
:100F5E00B12FBE2F0230F6008630F5009930F40026
:100F6E00F40BB72FF50BB72FF60BB72FF901780847
:100F7E00803AFF0080307F02031DC72F01307702B9
:100F8E000318CA2FCB2FD92F0230F6008630F5006A
:100F9E009930F400F40BD12FF50BD12FF60BD12F86
:100FAE00F901F90A79080319DD2FDE2FE52F1C3020
:100FBE00F7070318F80A0030F807EB2FE430F707AD
:100FCE000318F80AFF30F8077808F1007708F000E8
:100FDE005D270230F6008630F5009930F400F40BF0
:100FEE00F62FF50BF62FF60BF62F0800F9018301FD
:020FFE00472F7B
:02400E00D430AC
:00000001FF
