:10000000FE2F00308A000408840A820700341C3462
:0600100000341834013435
:100F1A009727DA278E2F0028831605108113851646
:100F2A0095160800FF308316850083128501073065
:100F3A00990083169F01BE27912708007108F300C4
:100F4A007008F2000310F30CF20C0310F30CF20C0D
:100F5A007208831293007008F20003300310F20D36
:100F6A00FF3E031DB32F0310720DFF007F08950487
:100F7A00080083160515453092000F30831295003C
:100F8A001830F6000130F7007708F1007608F00013
:100F9A00A32783128C109210121012158C1CD62FB4
:100FAA00D72FD32F8316051108008312851ADE2F37
:100FBA00DF2FE82F8230F500DD30F400F40BE32F49
:100FCA00F50BE32FE82F8312851AEC2FED2FFD2F57
:100FDA001C30F6020030031CF703F7027708F10011
:100FEA007608F000A3278312851EFC2FFD2FF82F09
:060FFA00080083018D2FA9
:02400E00D430AC
:00000001FF
