:020000000A28CC
:10000800FE00030EF0000A08F10022280B28F70171
:1000180083015128831285010730990083169F01B7
:10002800051405101930F5007508F2004830F6007F
:100038007608F300013036204B20080083168C1C0C
:10004800262827282F2883128C1C2B282C282F2879
:100058008C10F701F70A71088A00700E8300FE0EF3
:100068007E0E0900F400740873048312920072086B
:100078008316920083121215080077080319452881
:1000880046284A28013083128506F70108008312A2
:1000980091018C1083168C1408000E2056204120E4
:0A00A80053280A280B178B170800D5
:02400E00D430AC
:00000001FF
