:020000000A28CC
:10000800FE00030EF0000A08F1003B280B28F4015B
:1000180083015A28831203138501860107309F0044
:10002800FF30831603138500FF3086004D20C8304B
:10003800F2000030F3005F20831603130510F4016B
:1000480008007408031929282A283A28031083125B
:100058000313051C031403183228362883120313CC
:1000680005143928831203130510F40108008B1EA8
:100078003E283F2846280B1D4228432846280B11B6
:10008800F401F40A71088A00700E8300FE0E7E0ED9
:100098000900831603138112640083160313811168
:1000A8000111811001140B118B1608000E208B17FB
:1000B80025205C280A28720883120313810008008F
:00000001FF
