:10000000FD2F00308A000408840A820700341C3463
:0600100000341834013435
:100E9C0058279C274F2F0028831605108113851681
:100EAC0095160800FF3083168500831285010730E4
:100EBC00990083169F017F27522708007108F300C1
:100ECC007008F2000310F30CF20C0310F30CF20C8C
:100EDC007208831293007008F20003300310F20DB5
:100EEC00FF3E031D742F0310720DF300730895045D
:100EFC00080083160515453092000F3083129500BB
:100F0C001830F7000130F800F9017808F100770883
:100F1C00F000642783128C109210121012158C1C86
:100F2C00982F992F952F8316051108008312851A77
:100F3C00A02FA12FAA2F8230F500DD30F400F40B86
:100F4C00A52FF50BA52FAA2F8312851AAE2FAF2F25
:100F5C00FC2F01307802183003197702031CB72FCD
:100F6C00B82FC52F0230F6008630F5009930F4000A
:100F7C00F40BBE2FF50BBE2FF60BBE2FF901770825
:100F8C007804031DCA2FCB2FD92F0230F6008630E0
:100F9C00F5009930F400F40BD12FF50BD12FF60B93
:100FAC00D12FF901F90A79080319DD2FDE2FE52F6E
:100FBC001C30F7070318F80A0030F807EB2F1C3029
:100FCC00F7020030031CF803F8027808F1007708E8
:100FDC00F00064270230F6008630F5009930F400FA
:100FEC00F40BF62FF50BF62FF60BF62F0800F90184
:040FFC0083014E2FF0
:02400E00D430AC
:00000001FF
