:020000000A28CC
:10000800FE00030EF0000A08F100B1280B28C620F4
:10001800F7008301B828383031200330F5009730D5
:10002800F400F40B1528F50B15281A280E3031208A
:100038000330F5009730F400F40B2028F50B202846
:100048002528063031200330F5009730F400F40BF2
:100058002B28F50B2B2830280800F300F030FF0080
:100068007F0883120313850573080F39FF007F0883
:1000780085040F30FF007F0886057308F039FF00FC
:100088007F088604061406102130F200F20B4A2875
:10009800080000308A000408840A820700346D349E
:1000A80079342034663469347234733474342034C7
:1000B80067346F3461346C342034693473342034D9
:1000C8006D34653474340034F500F601742876080C
:1000D800750784004D20A7200130FF007F08F60730
:1000E8007608750784004D20003A031D7C287D287A
:1000F8006B2808000230F4000430F300BA30F20034
:10010800F20B8428F30B8428F40B842800000800E1
:10011800F030FF007F088316031385050F30FF00BA
:100128007F0886050610051385130800831203133C
:100138008501860107309F00FF3083160313850071
:10014800FF3086000800F400831203138517740833
:100158003120831203138513080071088A00700E7A
:100168008300FE0E7E0E09009A20BE208B17C72042
:10017800BB280A28C3200F200130682008008C20E3
:080188007E200800013408008C
:00000001FF
